{
  "contractName": "LoanContract",
  "abi": [
    {
      "anonymous": false,
      "inputs": [
        {
          "indexed": false,
          "internalType": "address",
          "name": "",
          "type": "address"
        },
        {
          "indexed": false,
          "internalType": "uint256",
          "name": "",
          "type": "uint256"
        }
      ],
      "name": "ActivateLoan",
      "type": "event"
    },
    {
      "anonymous": false,
      "inputs": [
        {
          "indexed": false,
          "internalType": "address",
          "name": "",
          "type": "address"
        },
        {
          "indexed": false,
          "internalType": "uint256",
          "name": "",
          "type": "uint256"
        },
        {
          "indexed": false,
          "internalType": "address",
          "name": "",
          "type": "address"
        }
      ],
      "name": "ApproveLoan",
      "type": "event"
    },
    {
      "anonymous": false,
      "inputs": [
        {
          "indexed": false,
          "internalType": "address",
          "name": "",
          "type": "address"
        },
        {
          "indexed": false,
          "internalType": "uint256",
          "name": "",
          "type": "uint256"
        }
      ],
      "name": "ConfirmRepayLoan",
      "type": "event"
    },
    {
      "anonymous": false,
      "inputs": [
        {
          "indexed": false,
          "internalType": "address",
          "name": "",
          "type": "address"
        },
        {
          "indexed": false,
          "internalType": "uint256",
          "name": "",
          "type": "uint256"
        }
      ],
      "name": "CreateLoan",
      "type": "event"
    },
    {
      "anonymous": false,
      "inputs": [
        {
          "indexed": false,
          "internalType": "address",
          "name": "",
          "type": "address"
        }
      ],
      "name": "DeleteLoan",
      "type": "event"
    },
    {
      "anonymous": false,
      "inputs": [
        {
          "indexed": false,
          "internalType": "address",
          "name": "",
          "type": "address"
        },
        {
          "indexed": false,
          "internalType": "string",
          "name": "",
          "type": "string"
        },
        {
          "indexed": false,
          "internalType": "string",
          "name": "",
          "type": "string"
        },
        {
          "indexed": false,
          "internalType": "string",
          "name": "",
          "type": "string"
        }
      ],
      "name": "Register",
      "type": "event"
    },
    {
      "anonymous": false,
      "inputs": [
        {
          "indexed": false,
          "internalType": "address",
          "name": "",
          "type": "address"
        },
        {
          "indexed": false,
          "internalType": "uint256",
          "name": "",
          "type": "uint256"
        }
      ],
      "name": "RejectLoan",
      "type": "event"
    },
    {
      "payable": false,
      "stateMutability": "nonpayable",
      "type": "fallback"
    },
    {
      "constant": false,
      "inputs": [
        {
          "internalType": "enum LoanContract.personType",
          "name": "_identifier",
          "type": "uint8"
        },
        {
          "internalType": "string",
          "name": "_name",
          "type": "string"
        },
        {
          "internalType": "string",
          "name": "_identityNumber",
          "type": "string"
        },
        {
          "internalType": "string",
          "name": "_homeAddress",
          "type": "string"
        }
      ],
      "name": "signPersonalInfo",
      "outputs": [],
      "payable": false,
      "stateMutability": "nonpayable",
      "type": "function"
    },
    {
      "constant": false,
      "inputs": [
        {
          "internalType": "uint256",
          "name": "id",
          "type": "uint256"
        },
        {
          "internalType": "string",
          "name": "newState",
          "type": "string"
        }
      ],
      "name": "updateState",
      "outputs": [
        {
          "internalType": "uint256",
          "name": "",
          "type": "uint256"
        }
      ],
      "payable": false,
      "stateMutability": "nonpayable",
      "type": "function"
    },
    {
      "constant": false,
      "inputs": [
        {
          "internalType": "uint256",
          "name": "_id",
          "type": "uint256"
        },
        {
          "internalType": "string",
          "name": "_createdAt",
          "type": "string"
        },
        {
          "internalType": "string",
          "name": "_purpose",
          "type": "string"
        },
        {
          "internalType": "uint256",
          "name": "_borrowAmount",
          "type": "uint256"
        },
        {
          "internalType": "string",
          "name": "_paybackDate",
          "type": "string"
        },
        {
          "internalType": "string",
          "name": "borrowerId",
          "type": "string"
        }
      ],
      "name": "createLoan",
      "outputs": [],
      "payable": false,
      "stateMutability": "nonpayable",
      "type": "function"
    },
    {
      "constant": false,
      "inputs": [
        {
          "internalType": "uint256",
          "name": "id",
          "type": "uint256"
        },
        {
          "internalType": "address",
          "name": "_borrower",
          "type": "address"
        }
      ],
      "name": "approveLoan",
      "outputs": [],
      "payable": false,
      "stateMutability": "nonpayable",
      "type": "function"
    },
    {
      "constant": false,
      "inputs": [
        {
          "internalType": "uint256",
          "name": "id",
          "type": "uint256"
        },
        {
          "internalType": "address",
          "name": "_lender",
          "type": "address"
        }
      ],
      "name": "activateLoan",
      "outputs": [],
      "payable": false,
      "stateMutability": "nonpayable",
      "type": "function"
    },
    {
      "constant": false,
      "inputs": [
        {
          "internalType": "uint256",
          "name": "id",
          "type": "uint256"
        }
      ],
      "name": "rejectLoan",
      "outputs": [],
      "payable": false,
      "stateMutability": "nonpayable",
      "type": "function"
    },
    {
      "constant": false,
      "inputs": [
        {
          "internalType": "uint256",
          "name": "id",
          "type": "uint256"
        },
        {
          "internalType": "address",
          "name": "_lender",
          "type": "address"
        },
        {
          "internalType": "uint256",
          "name": "repayAmount",
          "type": "uint256"
        }
      ],
      "name": "repayLoan",
      "outputs": [],
      "payable": false,
      "stateMutability": "nonpayable",
      "type": "function"
    },
    {
      "constant": false,
      "inputs": [
        {
          "internalType": "uint256",
          "name": "id",
          "type": "uint256"
        }
      ],
      "name": "deleteLoan",
      "outputs": [],
      "payable": false,
      "stateMutability": "nonpayable",
      "type": "function"
    }
  ],
  "bytecode": "0x608060405234801561001057600080fd5b50611263806100206000396000f3fe608060405234801561001057600080fd5b50600436106100885760003560e01c806349e7d3971161005b57806349e7d397146100fd5780635d29cb9814610119578063c0bbc9f114610135578063fa2afcf61461016557610088565b806311924a861461008d5780632188aa52146100a95780632fb1df85146100c55780633375216b146100e1575b600080fd5b6100a760048036036100a29190810190610d8a565b610181565b005b6100c360048036036100be9190810190610cb6565b610274565b005b6100df60048036036100da9190810190610d61565b61041b565b005b6100fb60048036036100f69190810190610dc6565b610455565b005b61011760048036036101129190810190610e69565b61055a565b005b610133600480360361012e9190810190610d61565b610888565b005b61014f600480360361014a9190810190610e15565b61093e565b60405161015c919061108d565b60405180910390f35b61017f600480360361017a9190810190610d8a565b610981565b005b60006002838154811061019057fe5b90600052602060002090601302019050600060048111156101ad57fe5b8160010160009054906101000a900460ff1660048111156101ca57fe5b146101d457600080fd5b60018160010160006101000a81548160ff021916908360048111156101f557fe5b021790555060018160120160006101000a81548160ff02191690831515021790555060018160120160016101000a81548160ff0219169083151502179055507f2bde97c2408ebd8f9aa86881f76fe3bd299fcd714cb4ee26e53b30502718bef933848460405161026793929190611056565b60405180910390a1505050565b836000803373ffffffffffffffffffffffffffffffffffffffff1673ffffffffffffffffffffffffffffffffffffffff16815260200190815260200160002060000160006101000a81548160ff021916908360018111156102d157fe5b0217905550826000803373ffffffffffffffffffffffffffffffffffffffff1673ffffffffffffffffffffffffffffffffffffffff168152602001908152602001600020600101908051906020019061032b929190610a41565b50816000803373ffffffffffffffffffffffffffffffffffffffff1673ffffffffffffffffffffffffffffffffffffffff1681526020019081526020016000206002019080519060200190610381929190610a41565b50806000803373ffffffffffffffffffffffffffffffffffffffff1673ffffffffffffffffffffffffffffffffffffffff16815260200190815260200160002060030190805190602001906103d7929190610a41565b507fdc47bfcdf268c97ca450b05ddebf0e4fe0e509fd46c413bdba6063122d075ae23384848460405161040d9493929190610fd3565b60405180910390a150505050565b7fb28fc3d17c2ff42be51937da5a83dcf6a19ff8ad34e8de0ad04db4a9f1a8dbd43360405161044a9190610fb8565b60405180910390a150565b60006002848154811061046457fe5b906000526020600020906013020190506000600481111561048157fe5b8160010160009054906101000a900460ff16600481111561049e57fe5b146104a857600080fd5b60018060003373ffffffffffffffffffffffffffffffffffffffff1673ffffffffffffffffffffffffffffffffffffffff1681526020019081526020016000206000828254019250508190555060048160010160006101000a81548160ff0219169083600481111561051657fe5b02179055507f8788a74be786493aff06b163c6c940fabd3356f2655105739aa55ebaa6de6168338560405161054c92919061102d565b60405180910390a150505050565b610562610ac1565b86816000018181525050858161012001819052508281610160018190525084816101000181905250838160e0018181525050818160a001819052506000816020019060048111156105af57fe5b908160048111156105bc57fe5b81525050600281908060018154018082558091505090600182039060005260206000209060130201600090919290919091506000820151816000015560208201518160010160006101000a81548160ff0219169083600481111561061c57fe5b0217905550604082015181600201908051906020019061063d929190610b4b565b5060608201518160030160008201518160000160006101000a81548160ff0219169083600181111561066b57fe5b0217905550602082015181600101908051906020019061068c929190610b4b565b5060408201518160020190805190602001906106a9929190610b4b565b5060608201518160030190805190602001906106c6929190610b4b565b50505060808201518160070160008201518160000160006101000a81548160ff021916908360018111156106f657fe5b02179055506020820151816001019080519060200190610717929190610b4b565b506040820151816002019080519060200190610734929190610b4b565b506060820151816003019080519060200190610751929190610b4b565b50505060a082015181600b019080519060200190610770929190610b4b565b5060c082015181600c01908051906020019061078d929190610b4b565b5060e082015181600d015561010082015181600e0190805190602001906107b5929190610b4b565b5061012082015181600f0190805190602001906107d3929190610b4b565b5061014082015181601001556101608201518160110190805190602001906107fc929190610b4b565b506101808201518160120160006101000a81548160ff0219169083151502179055506101a08201518160120160016101000a81548160ff0219169083151502179055505050507f4de94521522d62c755d4cf054fa8bdbd5519675ea0fb02cebde40abcaf44560133826000015160405161087792919061102d565b60405180910390a150505050505050565b60006002828154811061089757fe5b90600052602060002090601302019050600060048111156108b457fe5b8160010160009054906101000a900460ff1660048111156108d157fe5b146108db57600080fd5b60028160010160006101000a81548160ff021916908360048111156108fc57fe5b02179055507f30ec320302fcd343ad57a08be41a5afdd632284f695b258c81d0079232ab02eb338360405161093292919061102d565b60405180910390a15050565b6000806002848154811061094e57fe5b9060005260206000209060130201905082816002019080519060200190610976929190610a41565b508391505092915050565b60006002838154811061099057fe5b90600052602060002090601302019050600160048111156109ad57fe5b8160010160009054906101000a900460ff1660048111156109ca57fe5b146109d457600080fd5b60038160010160006101000a81548160ff021916908360048111156109f557fe5b02179055504281601001819055507f12462b71386bcc6b0423a93cf42d9d990fd0e908df2628d437482774922dd4d23384604051610a3492919061102d565b60405180910390a1505050565b828054600181600116156101000203166002900490600052602060002090601f016020900481019282601f10610a8257805160ff1916838001178555610ab0565b82800160010185558215610ab0579182015b82811115610aaf578251825591602001919060010190610a94565b5b509050610abd9190610bcb565b5090565b604051806101c001604052806000815260200160006004811115610ae157fe5b815260200160608152602001610af5610bf0565b8152602001610b02610bf0565b8152602001606081526020016060815260200160008152602001606081526020016060815260200160008152602001606081526020016000151581526020016000151581525090565b828054600181600116156101000203166002900490600052602060002090601f016020900481019282601f10610b8c57805160ff1916838001178555610bba565b82800160010185558215610bba579182015b82811115610bb9578251825591602001919060010190610b9e565b5b509050610bc79190610bcb565b5090565b610bed91905b80821115610be9576000816000905550600101610bd1565b5090565b90565b604051806080016040528060006001811115610c0857fe5b81526020016060815260200160608152602001606081525090565b600081359050610c32816111e2565b92915050565b600081359050610c47816111f9565b92915050565b600082601f830112610c5e57600080fd5b8135610c71610c6c826110d5565b6110a8565b91508082526020830160208301858383011115610c8d57600080fd5b610c9883828461118f565b50505092915050565b600081359050610cb081611209565b92915050565b60008060008060808587031215610ccc57600080fd5b6000610cda87828801610c38565b945050602085013567ffffffffffffffff811115610cf757600080fd5b610d0387828801610c4d565b935050604085013567ffffffffffffffff811115610d2057600080fd5b610d2c87828801610c4d565b925050606085013567ffffffffffffffff811115610d4957600080fd5b610d5587828801610c4d565b91505092959194509250565b600060208284031215610d7357600080fd5b6000610d8184828501610ca1565b91505092915050565b60008060408385031215610d9d57600080fd5b6000610dab85828601610ca1565b9250506020610dbc85828601610c23565b9150509250929050565b600080600060608486031215610ddb57600080fd5b6000610de986828701610ca1565b9350506020610dfa86828701610c23565b9250506040610e0b86828701610ca1565b9150509250925092565b60008060408385031215610e2857600080fd5b6000610e3685828601610ca1565b925050602083013567ffffffffffffffff811115610e5357600080fd5b610e5f85828601610c4d565b9150509250929050565b60008060008060008060c08789031215610e8257600080fd5b6000610e9089828a01610ca1565b965050602087013567ffffffffffffffff811115610ead57600080fd5b610eb989828a01610c4d565b955050604087013567ffffffffffffffff811115610ed657600080fd5b610ee289828a01610c4d565b9450506060610ef389828a01610ca1565b935050608087013567ffffffffffffffff811115610f1057600080fd5b610f1c89828a01610c4d565b92505060a087013567ffffffffffffffff811115610f3957600080fd5b610f4589828a01610c4d565b9150509295509295509295565b610f5b81611159565b82525050565b610f6a8161111d565b82525050565b6000610f7b82611101565b610f85818561110c565b9350610f9581856020860161119e565b610f9e816111d1565b840191505092915050565b610fb28161114f565b82525050565b6000602082019050610fcd6000830184610f52565b92915050565b6000608082019050610fe86000830187610f52565b8181036020830152610ffa8186610f70565b9050818103604083015261100e8185610f70565b905081810360608301526110228184610f70565b905095945050505050565b60006040820190506110426000830185610f52565b61104f6020830184610fa9565b9392505050565b600060608201905061106b6000830186610f52565b6110786020830185610fa9565b6110856040830184610f61565b949350505050565b60006020820190506110a26000830184610fa9565b92915050565b6000604051905081810181811067ffffffffffffffff821117156110cb57600080fd5b8060405250919050565b600067ffffffffffffffff8211156110ec57600080fd5b601f19601f8301169050602081019050919050565b600081519050919050565b600082825260208201905092915050565b60006111288261112f565b9050919050565b600073ffffffffffffffffffffffffffffffffffffffff82169050919050565b6000819050919050565b60006111648261116b565b9050919050565b60006111768261117d565b9050919050565b60006111888261112f565b9050919050565b82818337600083830152505050565b60005b838110156111bc5780820151818401526020810190506111a1565b838111156111cb576000848401525b50505050565b6000601f19601f8301169050919050565b6111eb8161111d565b81146111f657600080fd5b50565b6002811061120657600080fd5b50565b6112128161114f565b811461121d57600080fd5b5056fea365627a7a723158206ff6790f17d0a4389ac33b38a54d3ba48545b5daf283bcc0492556a022c849a96c6578706572696d656e74616cf564736f6c634300050c0040",
  "source": "pragma solidity >=0.4.22 <0.7.0;\npragma experimental ABIEncoderV2;\n\ncontract LoanContract {\n\n  enum personType {Borrower, Lender}\n  enum loanStatus {REQUESTED, APPROVED, REJECTED, ACTIVATED, REPAYED}\n\n  struct PersonInfo{\n    personType identifier;\n    //string id;\n    string name;\n    string identityNumber;\n    string homeAddress;\n\n    //PersonInfo[] BorrowList;\n    //PersonInfo[] LendList;\n  }\n\n  struct Contract{\n\n    uint id;\n    //address contractID;\n\n    loanStatus status;\n    string state;\n\n    PersonInfo borrower;\n    PersonInfo lender;\n\n    string borrower_ID;\n    string lender_ID;\n\n    uint256 borrowAmount;\n  \n    string purpose;\n    //string borrowCondition;\n\n    string createdAt; //초안 생긴 시점\n    uint256 contractDate; //효력이 생기는 시점\n    string paybackDate; // 돈 갚을 날짜\n\n    bool borrower_signature; \n    bool lender_signature;\n  }\n\n  mapping (address => PersonInfo) users;\n  mapping (address => uint) creditPoints;\n  Contract[] contractsList;\n\n  //mapping (address => mapping(string => Contract)) public contracts;\n  //mapping (uint => Contract) public contractsMap;\n  //mapping (address=>uint[]) public lendMap;\n  //mapping (string => Contract) private loanContracts;\n\n  //uint loanCount = 0;\n\n  event Register(address, string, string, string);\n\n  event CreateLoan(address, uint); //borrower\n  event ApproveLoan(address, uint, address); //lender\n  event RejectLoan(address, uint); //lender\n  event DeleteLoan(address); //if rejected by lender\n  event ActivateLoan(address, uint); //borrower when received money\n  event ConfirmRepayLoan(address, uint); //lender\n\n  function signPersonalInfo(personType _identifier, string memory _name, string memory _identityNumber, string memory _homeAddress) public {\n\n    users[msg.sender].identifier = _identifier;\n    users[msg.sender].name = _name;\n    users[msg.sender].identityNumber = _identityNumber;\n    users[msg.sender].homeAddress = _homeAddress;\n\n    emit Register(msg.sender, _name, _identityNumber, _homeAddress);\n\n  }\n\n  // function getUser(address userKey) public view\n  //   returns(LoanContract.personType,string memory,string memory,string memory,uint256) {\n  //   return(users[userKey].identifier, users[userKey].name, users[userKey].identityNumber, users[userKey].homeAddress, creditPoints[msg.sender]);\n  // }\n\n  // function getContract(address _contractID) public view \n  //   returns (LoanContract.personType,LoanContract.personType,uint256,string memory,string memory, string memory) {\n  //   return (contracts[_contractID].borrower, contracts[_contractID].lender, contracts[_contractID].borrowAmount, contracts[_contractID].purpose, \n  //           contracts[_contractID].contractDate, contracts[_contractID].paybackDate);\n  // }\n\n  function updateState(uint id, string memory newState) public returns (uint) {\n    Contract storage temp_contract = contractsList[id];\n    temp_contract.state = newState;\n    return id;\n  }\n\n  function createLoan(uint _id, string memory _createdAt, string memory _purpose, uint _borrowAmount, string memory _paybackDate, string memory borrowerId) public {\n\n    Contract memory new_contract;\n    //new_contract.contractID = bytes32ToString(keccak256(_contractID));\n    new_contract.id = _id;\n    new_contract.createdAt = _createdAt;\n    new_contract.paybackDate = _paybackDate;\n    new_contract.purpose = _purpose;\n    new_contract.borrowAmount = _borrowAmount;\n    new_contract.borrower_ID = borrowerId;\n    //new_contract.lender_ID = _lender;\n\n    new_contract.status = loanStatus.REQUESTED;\n    contractsList.push(new_contract);\n    //contractsMap[loanCount] = new_contract;\n\n    //loanCount++;\n\n    //contracts[msg.sender][new_contract.contractID] = new_contract;\n    emit CreateLoan(msg.sender, new_contract.id);\n  }\n\n  function approveLoan(uint id, address _borrower) public {\n    \n    //Contract memory loancontract = contractsMap[msg.sender][_contractID];\n    Contract storage temp_contract = contractsList[id];\n\n    require(temp_contract.status == loanStatus.REQUESTED);\n    \n    //contractsMap[msg.sender][_contractID].status = loanStatus.APPROVED;\n    temp_contract.status = loanStatus.APPROVED;\n\n    temp_contract.borrower_signature = true;\n    temp_contract.lender_signature = true;\n\n    //msg.sender is lender\n\n    emit ApproveLoan(msg.sender, id, _borrower);\n  }\n\n  function activateLoan(uint id, address _lender) public {\n\n    //Contract memory loancontract = contractsMap[msg.sender][_contractID];\n    Contract storage temp_contract = contractsList[id];\n\n    require(temp_contract.status == loanStatus.APPROVED);\n\n    //contractsMap[msg.sender][_contractID].status = loanStatus.APPROVED;\n    temp_contract.status = loanStatus.ACTIVATED;\n    temp_contract.contractDate = block.timestamp;\n\n    //msg.sender is borrower\n\n    emit ActivateLoan(msg.sender, id);\n  }\n\n  function rejectLoan(uint id) public {\n\n    //Contract memory loancontract = contractsMap[msg.sender][_contractID];\n    Contract storage temp_contract = contractsList[id];\n\n    require(temp_contract.status == loanStatus.REQUESTED);\n    \n    //contractsMap[msg.sender][_contractID].status = loanStatus.REJECTED;\n    temp_contract.status = loanStatus.REJECTED;\n    \n    emit RejectLoan(msg.sender, id);\n  }\n\n  function repayLoan(uint id, address _lender, uint repayAmount) public {\n    \n    //Contract memory loancontract = contractsMap[msg.sender][_contractID];\n    Contract storage temp_contract = contractsList[id];\n\n    require(temp_contract.status == loanStatus.REQUESTED);\n\n    creditPoints[msg.sender] += 1;\n    \n    //contractsMap[msg.sender][_contractID].status = loanStatus.REPAYED;\n    temp_contract.status = loanStatus.REPAYED;\n    \n    emit ConfirmRepayLoan(msg.sender, id);\n  }\n\n  function deleteLoan(uint id) public {\n\n    //delete contractsMap[msg.sender][_contractID];\n    //Contract storage temp_contract = contractsList[id];\n  \n    //loanCount--;\n\n    emit DeleteLoan(msg.sender);\n  }\n\n  function toBytesFromAddress(address a) internal pure returns (bytes memory b) {\n    assembly {\n      let m := mload(0x40)\n      mstore(add(m, 20), xor(0x140000000000000000000000000000000000000000, a))\n      mstore(0x40, add(m, 52))\n      b := m\n    }\n  }\n    \n  function toBytesFromUint(uint256 x) internal pure returns (bytes memory b) {\n    b = new bytes(32);\n    assembly { \n      mstore(add(b, 32), x) \n    }\n  }\n\n  function stringToBytes32(string memory source) private pure returns (bytes32 result) {\n    bytes memory tempEmptyStringTest = bytes(source);\n    if (tempEmptyStringTest.length == 0) {\n        return 0x0;\n    }\n    assembly {\n        result := mload(add(source, 32))\n    }\n  }\n\n  function bytes32ToString (bytes32 data) internal pure returns (string memory) {\n    bytes memory bytesString = new bytes(32);\n    for (uint j=0; j<32; j++) {\n      byte char = byte(bytes32(uint(data) * 2 ** (8 * j)));\n      if (char != 0) {\n          bytesString[j] = char;\n      }\n    }\n    return string(bytesString);\n  }\n\n  function() external{\n    revert();\n  }\n\n}\n",
  "sourcePath": "/Users/kangminjoo/Desktop/fintech-hackathon/fintech-hackathon-2019/blockchain-smartcontract/contracts/LoanContract.sol",
  "compiler": {
    "name": "solc",
    "version": "0.5.12+commit.7709ece9.Emscripten.clang"
  },
  "schemaVersion": "3.0.19",
  "updatedAt": "2019-11-30T06:59:24.837Z",
  "networkType": "ethereum",
  "devdoc": {
    "methods": {}
  },
  "userdoc": {
    "methods": {}
  }
}